{
  "contractName": "Survey",
  "abi": [
    {
      "constant": true,
      "inputs": [],
      "name": "totalSurveysCollected",
      "outputs": [
        {
          "name": "",
          "type": "uint256"
        }
      ],
      "payable": false,
      "stateMutability": "view",
      "type": "function",
      "signature": "0x1818bb4f"
    },
    {
      "constant": true,
      "inputs": [
        {
          "name": "",
          "type": "uint256"
        }
      ],
      "name": "users",
      "outputs": [
        {
          "name": "balance",
          "type": "uint256"
        },
        {
          "name": "active",
          "type": "bool"
        },
        {
          "name": "banned",
          "type": "bool"
        },
        {
          "name": "secret",
          "type": "bytes32"
        }
      ],
      "payable": false,
      "stateMutability": "view",
      "type": "function",
      "signature": "0x365b98b2"
    },
    {
      "constant": true,
      "inputs": [],
      "name": "pointsPerSurvey",
      "outputs": [
        {
          "name": "",
          "type": "uint256"
        }
      ],
      "payable": false,
      "stateMutability": "view",
      "type": "function",
      "signature": "0x8017883d"
    },
    {
      "inputs": [],
      "payable": false,
      "stateMutability": "nonpayable",
      "type": "constructor",
      "signature": "constructor"
    },
    {
      "anonymous": false,
      "inputs": [
        {
          "indexed": false,
          "name": "user",
          "type": "uint256"
        }
      ],
      "name": "allowEntry",
      "type": "event",
      "signature": "0x4f42592042843ab3ecb68469cf6ba9a4cf6fe8d2df5dd3d080eb8993cb4d655d"
    },
    {
      "anonymous": false,
      "inputs": [
        {
          "indexed": false,
          "name": "name",
          "type": "uint256"
        }
      ],
      "name": "userRegistered",
      "type": "event",
      "signature": "0x6b7a42e3768fc24ff05fc49e251816434f842a132416160282a290142dbdefd2"
    },
    {
      "anonymous": false,
      "inputs": [
        {
          "indexed": false,
          "name": "user",
          "type": "uint256"
        }
      ],
      "name": "redeemedPoints",
      "type": "event",
      "signature": "0xa246c37b0a9df7d1776fb25c009cdb31560b9aa4d14a010f2b0ea345318ff755"
    },
    {
      "constant": false,
      "inputs": [
        {
          "name": "user",
          "type": "uint256"
        }
      ],
      "name": "registerUser",
      "outputs": [],
      "payable": false,
      "stateMutability": "nonpayable",
      "type": "function",
      "signature": "0x1bbfae0e"
    },
    {
      "constant": true,
      "inputs": [],
      "name": "getSurveyCount",
      "outputs": [
        {
          "name": "",
          "type": "uint256"
        }
      ],
      "payable": false,
      "stateMutability": "view",
      "type": "function",
      "signature": "0x9fe140b1"
    },
    {
      "constant": true,
      "inputs": [
        {
          "name": "user",
          "type": "uint256"
        }
      ],
      "name": "getPoints",
      "outputs": [
        {
          "name": "",
          "type": "uint256"
        }
      ],
      "payable": false,
      "stateMutability": "view",
      "type": "function",
      "signature": "0xa967eee4"
    },
    {
      "constant": true,
      "inputs": [
        {
          "name": "user",
          "type": "uint256"
        }
      ],
      "name": "getUserHash",
      "outputs": [
        {
          "name": "",
          "type": "bytes32"
        }
      ],
      "payable": false,
      "stateMutability": "view",
      "type": "function",
      "signature": "0x4e838e6a"
    },
    {
      "constant": false,
      "inputs": [
        {
          "name": "user",
          "type": "uint256"
        },
        {
          "name": "secret",
          "type": "bytes32"
        }
      ],
      "name": "updateUserHash",
      "outputs": [],
      "payable": false,
      "stateMutability": "nonpayable",
      "type": "function",
      "signature": "0x42402bc9"
    },
    {
      "constant": false,
      "inputs": [
        {
          "name": "user",
          "type": "uint256"
        }
      ],
      "name": "banUser",
      "outputs": [],
      "payable": false,
      "stateMutability": "nonpayable",
      "type": "function",
      "signature": "0x746593a5"
    },
    {
      "constant": false,
      "inputs": [
        {
          "name": "user",
          "type": "uint256"
        }
      ],
      "name": "addSurveyEntry",
      "outputs": [],
      "payable": false,
      "stateMutability": "nonpayable",
      "type": "function",
      "signature": "0x78dbd544"
    },
    {
      "constant": false,
      "inputs": [
        {
          "name": "user",
          "type": "uint256"
        },
        {
          "name": "points",
          "type": "uint256"
        }
      ],
      "name": "redeemPoints",
      "outputs": [],
      "payable": false,
      "stateMutability": "nonpayable",
      "type": "function",
      "signature": "0xc2e70431"
    }
  ],
  "bytecode": "0x608060405234801561001057600080fd5b5060008081905550600a6001819055506108a48061002f6000396000f3fe6080604052600436106100a9576000357c0100000000000000000000000000000000000000000000000000000000900480631818bb4f146100ae5780631bbfae0e146100d9578063365b98b21461011457806342402bc9146101805780634e838e6a146101c5578063746593a51461021457806378dbd5441461024f5780638017883d1461028a5780639fe140b1146102b5578063a967eee4146102e0578063c2e704311461032f575b600080fd5b3480156100ba57600080fd5b506100c3610374565b6040518082815260200191505060405180910390f35b3480156100e557600080fd5b50610112600480360360208110156100fc57600080fd5b810190808035906020019092919050505061037a565b005b34801561012057600080fd5b5061014d6004803603602081101561013757600080fd5b8101908080359060200190929190505050610466565b60405180858152602001841515151581526020018315151515815260200182815260200194505050505060405180910390f35b34801561018c57600080fd5b506101c3600480360360408110156101a357600080fd5b8101908080359060200190929190803590602001909291905050506104b0565b005b3480156101d157600080fd5b506101fe600480360360208110156101e857600080fd5b810190808035906020019092919050505061053f565b6040518082815260200191505060405180910390f35b34801561022057600080fd5b5061024d6004803603602081101561023757600080fd5b81019080803590602001909291905050506105cf565b005b34801561025b57600080fd5b506102886004803603602081101561027257600080fd5b8101908080359060200190929190505050610639565b005b34801561029657600080fd5b5061029f610719565b6040518082815260200191505060405180910390f35b3480156102c157600080fd5b506102ca61071f565b6040518082815260200191505060405180910390f35b3480156102ec57600080fd5b506103196004803603602081101561030357600080fd5b8101908080359060200190929190505050610728565b6040518082815260200191505060405180910390f35b34801561033b57600080fd5b506103726004803603604081101561035257600080fd5b8101908080359060200190929190803590602001909291905050506107b8565b005b60005481565b80600015156002600083815260200190815260200160002060010160009054906101000a900460ff1615151415156103b157600080fd5b6000600260008481526020019081526020016000206000018190555060016002600084815260200190815260200160002060010160006101000a81548160ff02191690831515021790555060006002600084815260200190815260200160002060010160016101000a81548160ff0219169083151502179055507f6b7a42e3768fc24ff05fc49e251816434f842a132416160282a290142dbdefd2826040518082815260200191505060405180910390a15050565b60026020528060005260406000206000915090508060000154908060010160009054906101000a900460ff16908060010160019054906101000a900460ff16908060020154905084565b81600115156002600083815260200190815260200160002060010160009054906101000a900460ff1615151415156104e757600080fd5b82600015156002600083815260200190815260200160002060010160019054906101000a900460ff16151514151561051e57600080fd5b82600260008681526020019081526020016000206002018190555050505050565b600081600115156002600083815260200190815260200160002060010160009054906101000a900460ff16151514151561057857600080fd5b82600015156002600083815260200190815260200160002060010160019054906101000a900460ff1615151415156105af57600080fd5b600260008581526020019081526020016000206002015492505050919050565b80600115156002600083815260200190815260200160002060010160009054906101000a900460ff16151514151561060657600080fd5b60016002600084815260200190815260200160002060010160016101000a81548160ff0219169083151502179055505050565b80600115156002600083815260200190815260200160002060010160009054906101000a900460ff16151514151561067057600080fd5b81600015156002600083815260200190815260200160002060010160019054906101000a900460ff1615151415156106a757600080fd5b6001546002600085815260200190815260200160002060000160008282540192505081905550600160008082825401925050819055507f4f42592042843ab3ecb68469cf6ba9a4cf6fe8d2df5dd3d080eb8993cb4d655d836040518082815260200191505060405180910390a1505050565b60015481565b60008054905090565b600081600115156002600083815260200190815260200160002060010160009054906101000a900460ff16151514151561076157600080fd5b82600015156002600083815260200190815260200160002060010160019054906101000a900460ff16151514151561079857600080fd5b600260008581526020019081526020016000206000015492505050919050565b81600115156002600083815260200190815260200160002060010160009054906101000a900460ff1615151415156107ef57600080fd5b82828060026000848152602001908152602001600020600001541015151561081657600080fd5b8360026000878152602001908152602001600020600001600082825403925050819055507fa246c37b0a9df7d1776fb25c009cdb31560b9aa4d14a010f2b0ea345318ff755856040518082815260200191505060405180910390a1505050505056fea165627a7a72305820986c2547b7beb30a478dff8fea637413cb3f7822d7cebae054bc3a8f1ed561640029",
  "source": "pragma solidity ^0.5.0;\n\ncontract Survey {\n \n uint public totalSurveysCollected;\n uint public pointsPerSurvey;\n \n struct User {\n     uint balance;\n     bool active;\n     bool banned;\n     bytes32 secret;\n }\n \n mapping (uint => User) public users;\n \n constructor() public {\n     totalSurveysCollected = 0;\n     pointsPerSurvey = 10;\n }\n \n event allowEntry(uint user);\n event userRegistered(uint name);\n event redeemedPoints(uint user);\n \n modifier newUser(uint user) { require(users[user].active == false); _; }\n modifier registeredUser(uint user) {  require(users[user].active == true); _; }\n modifier hasPoints(uint user, uint points) {    require(users[user].balance >= points); _;}\n modifier notBanned(uint user) { require(users[user].banned == false); _;}\n \n function registerUser(uint user) public newUser(user){\n     users[user].balance = 0;\n     users[user].active = true;\n     users[user].banned = false;\n     emit userRegistered(user);\n }\n\n function getSurveyCount() view public returns(uint){\n     return totalSurveysCollected;\n }\n  \n function getPoints(uint user) view public registeredUser(user) notBanned(user) returns(uint){\n     return users[user].balance;\n }\n \n function getUserHash(uint user) view public registeredUser(user) notBanned(user) returns(bytes32){\n     return users[user].secret;\n }\n \n function updateUserHash(uint user, bytes32 secret) public registeredUser(user) notBanned(user){\n     users[user].secret = secret;\n }\n\n function banUser(uint user) public registeredUser(user){\n     users[user].banned = true;\n }\n \n function addSurveyEntry(uint user) public registeredUser(user) notBanned(user){\n     users[user].balance += pointsPerSurvey;\n     totalSurveysCollected += 1;\n     emit allowEntry(user);\n }\n\n function redeemPoints(uint user, uint points) public registeredUser(user) hasPoints(user, points){\n     users[user].balance -= points;\n     emit redeemedPoints(user);\n }\n \n}",
  "sourcePath": "/Users/vikramkarthikeyan/Documents/701/701-blockchain/survey-contract/contracts/Survey.sol",
  "compiler": {
    "name": "solc",
    "version": "0.5.1+commit.c8a2cb62.Emscripten.clang"
  },
  "schemaVersion": "3.0.1",
  "updatedAt": "2019-04-30T15:08:44.750Z",
  "devdoc": {
    "methods": {}
  },
  "userdoc": {
    "methods": {}
  }
}