{
  "contractName": "Survey",
  "abi": [
    {
      "constant": true,
      "inputs": [],
      "name": "totalSurveysCollected",
      "outputs": [
        {
          "name": "",
          "type": "uint256"
        }
      ],
      "payable": false,
      "stateMutability": "view",
      "type": "function",
      "signature": "0x1818bb4f"
    },
    {
      "constant": true,
      "inputs": [
        {
          "name": "",
          "type": "uint256"
        }
      ],
      "name": "users",
      "outputs": [
        {
          "name": "balance",
          "type": "uint256"
        },
        {
          "name": "active",
          "type": "bool"
        }
      ],
      "payable": false,
      "stateMutability": "view",
      "type": "function",
      "signature": "0x365b98b2"
    },
    {
      "constant": true,
      "inputs": [],
      "name": "pointsPerSurvey",
      "outputs": [
        {
          "name": "",
          "type": "uint256"
        }
      ],
      "payable": false,
      "stateMutability": "view",
      "type": "function",
      "signature": "0x8017883d"
    },
    {
      "inputs": [],
      "payable": false,
      "stateMutability": "nonpayable",
      "type": "constructor",
      "signature": "constructor"
    },
    {
      "anonymous": false,
      "inputs": [
        {
          "indexed": false,
          "name": "user",
          "type": "uint256"
        }
      ],
      "name": "allowEntry",
      "type": "event",
      "signature": "0x4f42592042843ab3ecb68469cf6ba9a4cf6fe8d2df5dd3d080eb8993cb4d655d"
    },
    {
      "anonymous": false,
      "inputs": [
        {
          "indexed": false,
          "name": "name",
          "type": "uint256"
        }
      ],
      "name": "userRegistered",
      "type": "event",
      "signature": "0x6b7a42e3768fc24ff05fc49e251816434f842a132416160282a290142dbdefd2"
    },
    {
      "anonymous": false,
      "inputs": [
        {
          "indexed": false,
          "name": "user",
          "type": "uint256"
        }
      ],
      "name": "redeemedPoints",
      "type": "event",
      "signature": "0xa246c37b0a9df7d1776fb25c009cdb31560b9aa4d14a010f2b0ea345318ff755"
    },
    {
      "constant": false,
      "inputs": [
        {
          "name": "user",
          "type": "uint256"
        }
      ],
      "name": "registerUser",
      "outputs": [],
      "payable": false,
      "stateMutability": "nonpayable",
      "type": "function",
      "signature": "0x1bbfae0e"
    },
    {
      "constant": true,
      "inputs": [],
      "name": "getSurveyCount",
      "outputs": [
        {
          "name": "",
          "type": "uint256"
        }
      ],
      "payable": false,
      "stateMutability": "view",
      "type": "function",
      "signature": "0x9fe140b1"
    },
    {
      "constant": true,
      "inputs": [
        {
          "name": "user",
          "type": "uint256"
        }
      ],
      "name": "getPoints",
      "outputs": [
        {
          "name": "",
          "type": "uint256"
        }
      ],
      "payable": false,
      "stateMutability": "view",
      "type": "function",
      "signature": "0xa967eee4"
    },
    {
      "constant": false,
      "inputs": [
        {
          "name": "user",
          "type": "uint256"
        }
      ],
      "name": "addSurveyEntry",
      "outputs": [],
      "payable": false,
      "stateMutability": "nonpayable",
      "type": "function",
      "signature": "0x78dbd544"
    },
    {
      "constant": false,
      "inputs": [
        {
          "name": "user",
          "type": "uint256"
        },
        {
          "name": "points",
          "type": "uint256"
        }
      ],
      "name": "redeemPoints",
      "outputs": [],
      "payable": false,
      "stateMutability": "nonpayable",
      "type": "function",
      "signature": "0xc2e70431"
    }
  ],
  "bytecode": "0x608060405234801561001057600080fd5b5060008081905550600a6001819055506105618061002f6000396000f3fe608060405260043610610088576000357c0100000000000000000000000000000000000000000000000000000000900480631818bb4f1461008d5780631bbfae0e146100b8578063365b98b2146100f357806378dbd5441461014d5780638017883d146101885780639fe140b1146101b3578063a967eee4146101de578063c2e704311461022d575b600080fd5b34801561009957600080fd5b506100a2610272565b6040518082815260200191505060405180910390f35b3480156100c457600080fd5b506100f1600480360360208110156100db57600080fd5b8101908080359060200190929190505050610278565b005b3480156100ff57600080fd5b5061012c6004803603602081101561011657600080fd5b8101908080359060200190929190505050610335565b60405180838152602001821515151581526020019250505060405180910390f35b34801561015957600080fd5b506101866004803603602081101561017057600080fd5b8101908080359060200190929190505050610366565b005b34801561019457600080fd5b5061019d61040e565b6040518082815260200191505060405180910390f35b3480156101bf57600080fd5b506101c8610414565b6040518082815260200191505060405180910390f35b3480156101ea57600080fd5b506102176004803603602081101561020157600080fd5b810190808035906020019092919050505061041d565b6040518082815260200191505060405180910390f35b34801561023957600080fd5b506102706004803603604081101561025057600080fd5b810190808035906020019092919080359060200190929190505050610475565b005b60005481565b80600015156002600083815260200190815260200160002060010160009054906101000a900460ff1615151415156102af57600080fd5b6000600260008481526020019081526020016000206000018190555060016002600084815260200190815260200160002060010160006101000a81548160ff0219169083151502179055507f6b7a42e3768fc24ff05fc49e251816434f842a132416160282a290142dbdefd2826040518082815260200191505060405180910390a15050565b60026020528060005260406000206000915090508060000154908060010160009054906101000a900460ff16905082565b80600115156002600083815260200190815260200160002060010160009054906101000a900460ff16151514151561039d57600080fd5b6001546002600084815260200190815260200160002060000160008282540192505081905550600160008082825401925050819055507f4f42592042843ab3ecb68469cf6ba9a4cf6fe8d2df5dd3d080eb8993cb4d655d826040518082815260200191505060405180910390a15050565b60015481565b60008054905090565b600081600115156002600083815260200190815260200160002060010160009054906101000a900460ff16151514151561045657600080fd5b6002600084815260200190815260200160002060000154915050919050565b81600115156002600083815260200190815260200160002060010160009054906101000a900460ff1615151415156104ac57600080fd5b8282806002600084815260200190815260200160002060000154101515156104d357600080fd5b8360026000878152602001908152602001600020600001600082825403925050819055507fa246c37b0a9df7d1776fb25c009cdb31560b9aa4d14a010f2b0ea345318ff755856040518082815260200191505060405180910390a1505050505056fea165627a7a72305820fcbd31a32c6b463b2a2e06061c097d21207fd45227c51d0020d4cfdc0899e20d0029",
  "source": "pragma solidity ^0.5.0;\n\ncontract Survey {\n \n uint public totalSurveysCollected;\n uint public pointsPerSurvey;\n \n struct User {\n     uint balance;\n     bool active;\n }\n \n mapping (uint => User) public users;\n \n constructor() public {\n     totalSurveysCollected = 0;\n     pointsPerSurvey = 10;\n }\n \n event allowEntry(uint user);\n event userRegistered(uint name);\n event redeemedPoints(uint user);\n \n modifier newUser(uint user) { require(users[user].active == false); _; }\n modifier registeredUser(uint user) {  require(users[user].active == true); _; }\n modifier hasPoints(uint user, uint points) {    require(users[user].balance >= points); _;}\n \n function registerUser(uint user) public newUser(user){\n     users[user].balance = 0;\n     users[user].active = true;\n     emit userRegistered(user);\n }\n\n function getSurveyCount() view public returns(uint){\n     return totalSurveysCollected;\n }\n  \n function getPoints(uint user) view public registeredUser(user) returns(uint){\n     return users[user].balance;\n }\n \n function addSurveyEntry(uint user) public registeredUser(user){\n     users[user].balance += pointsPerSurvey;\n     totalSurveysCollected += 1;\n     emit allowEntry(user);\n }\n\n function redeemPoints(uint user, uint points) public registeredUser(user) hasPoints(user, points){\n     users[user].balance -= points;\n     emit redeemedPoints(user);\n }\n \n}",
  "sourcePath": "/Users/vikramkarthikeyan/Documents/701/701-blockchain/survey-contract/contracts/Survey.sol",
  "compiler": {
    "name": "solc",
    "version": "0.5.1+commit.c8a2cb62.Emscripten.clang"
  },
  "schemaVersion": "3.0.1",
  "updatedAt": "2019-04-03T22:09:06.278Z",
  "devdoc": {
    "methods": {}
  },
  "userdoc": {
    "methods": {}
  }
}