{
  "contractName": "Survey",
  "abi": [
    {
      "constant": true,
      "inputs": [],
      "name": "totalSurveysCollected",
      "outputs": [
        {
          "name": "",
          "type": "uint256"
        }
      ],
      "payable": false,
      "stateMutability": "view",
      "type": "function"
    },
    {
      "constant": true,
      "inputs": [],
      "name": "pointsPerSurvey",
      "outputs": [
        {
          "name": "",
          "type": "uint256"
        }
      ],
      "payable": false,
      "stateMutability": "view",
      "type": "function"
    },
    {
      "constant": true,
      "inputs": [
        {
          "name": "",
          "type": "address"
        }
      ],
      "name": "users",
      "outputs": [
        {
          "name": "name",
          "type": "string"
        },
        {
          "name": "balance",
          "type": "uint256"
        },
        {
          "name": "active",
          "type": "bool"
        }
      ],
      "payable": false,
      "stateMutability": "view",
      "type": "function"
    },
    {
      "inputs": [],
      "payable": false,
      "stateMutability": "nonpayable",
      "type": "constructor"
    },
    {
      "anonymous": false,
      "inputs": [
        {
          "indexed": false,
          "name": "user",
          "type": "address"
        }
      ],
      "name": "allowEntry",
      "type": "event"
    },
    {
      "anonymous": false,
      "inputs": [
        {
          "indexed": false,
          "name": "name",
          "type": "string"
        }
      ],
      "name": "userRegistered",
      "type": "event"
    },
    {
      "anonymous": false,
      "inputs": [
        {
          "indexed": false,
          "name": "user",
          "type": "address"
        }
      ],
      "name": "redeemedPoints",
      "type": "event"
    },
    {
      "constant": false,
      "inputs": [
        {
          "name": "name",
          "type": "string"
        }
      ],
      "name": "registerUser",
      "outputs": [],
      "payable": false,
      "stateMutability": "nonpayable",
      "type": "function"
    },
    {
      "constant": false,
      "inputs": [],
      "name": "addSurveyEntry",
      "outputs": [],
      "payable": false,
      "stateMutability": "nonpayable",
      "type": "function"
    },
    {
      "constant": false,
      "inputs": [
        {
          "name": "points",
          "type": "uint256"
        }
      ],
      "name": "redeemPoints",
      "outputs": [],
      "payable": false,
      "stateMutability": "nonpayable",
      "type": "function"
    }
  ],
  "bytecode": "0x608060405234801561001057600080fd5b5060008081905550600a60018190555061090c8061002f6000396000f3fe608060405260043610610078576000357c0100000000000000000000000000000000000000000000000000000000900463ffffffff1680631818bb4f1461007d578063704f1b94146100a857806372628dcd146101705780638017883d14610187578063a87430ba146101b2578063e92e92e71461028e575b600080fd5b34801561008957600080fd5b506100926102c9565b6040518082815260200191505060405180910390f35b3480156100b457600080fd5b5061016e600480360360208110156100cb57600080fd5b81019080803590602001906401000000008111156100e857600080fd5b8201836020820111156100fa57600080fd5b8035906020019184600183028401116401000000008311171561011c57600080fd5b91908080601f016020809104026020016040519081016040528093929190818152602001838380828437600081840152601f19601f8201169050808301925050505050505091929192905050506102cf565b005b34801561017c57600080fd5b506101856104cc565b005b34801561019357600080fd5b5061019c6105f7565b6040518082815260200191505060405180910390f35b3480156101be57600080fd5b50610201600480360360208110156101d557600080fd5b81019080803573ffffffffffffffffffffffffffffffffffffffff1690602001909291905050506105fd565b604051808060200184815260200183151515158152602001828103825285818151815260200191508051906020019080838360005b83811015610251578082015181840152602081019050610236565b50505050905090810190601f16801561027e5780820380516001836020036101000a031916815260200191505b5094505050505060405180910390f35b34801561029a57600080fd5b506102c7600480360360208110156102b157600080fd5b81019080803590602001909291905050506106cc565b005b60005481565b3360001515600260008373ffffffffffffffffffffffffffffffffffffffff1673ffffffffffffffffffffffffffffffffffffffff16815260200190815260200160002060020160009054906101000a900460ff16151514151561033257600080fd5b81600260003373ffffffffffffffffffffffffffffffffffffffff1673ffffffffffffffffffffffffffffffffffffffff168152602001908152602001600020600001908051906020019061038892919061083b565b506000600260003373ffffffffffffffffffffffffffffffffffffffff1673ffffffffffffffffffffffffffffffffffffffff168152602001908152602001600020600101819055506001600260003373ffffffffffffffffffffffffffffffffffffffff1673ffffffffffffffffffffffffffffffffffffffff16815260200190815260200160002060020160006101000a81548160ff0219169083151502179055507f21c81c0097b6e1b7ef20206aea0850a329a7d615636155335fa8fd79add21045826040518080602001828103825283818151815260200191508051906020019080838360005b8381101561048e578082015181840152602081019050610473565b50505050905090810190601f1680156104bb5780820380516001836020036101000a031916815260200191505b509250505060405180910390a15050565b3360011515600260008373ffffffffffffffffffffffffffffffffffffffff1673ffffffffffffffffffffffffffffffffffffffff16815260200190815260200160002060020160009054906101000a900460ff16151514151561052f57600080fd5b600154600260003373ffffffffffffffffffffffffffffffffffffffff1673ffffffffffffffffffffffffffffffffffffffff16815260200190815260200160002060010160008282540192505081905550600160008082825401925050819055507f132c7c4177ee7342e680a0f7c57373947326da998969a4ee7f1425c3ad75299f33604051808273ffffffffffffffffffffffffffffffffffffffff1673ffffffffffffffffffffffffffffffffffffffff16815260200191505060405180910390a150565b60015481565b6002602052806000526040600020600091509050806000018054600181600116156101000203166002900480601f0160208091040260200160405190810160405280929190818152602001828054600181600116156101000203166002900480156106a95780601f1061067e576101008083540402835291602001916106a9565b820191906000526020600020905b81548152906001019060200180831161068c57829003601f168201915b5050505050908060010154908060020160009054906101000a900460ff16905083565b3360011515600260008373ffffffffffffffffffffffffffffffffffffffff1673ffffffffffffffffffffffffffffffffffffffff16815260200190815260200160002060020160009054906101000a900460ff16151514151561072f57600080fd5b338280600260008473ffffffffffffffffffffffffffffffffffffffff1673ffffffffffffffffffffffffffffffffffffffff168152602001908152602001600020600101541015151561078257600080fd5b83600260003373ffffffffffffffffffffffffffffffffffffffff1673ffffffffffffffffffffffffffffffffffffffff168152602001908152602001600020600101600082825403925050819055507fb50c83e287bc0816150c36543d983e2d551f698ebf3e895e674e99d8e0f25cb533604051808273ffffffffffffffffffffffffffffffffffffffff1673ffffffffffffffffffffffffffffffffffffffff16815260200191505060405180910390a150505050565b828054600181600116156101000203166002900490600052602060002090601f016020900481019282601f1061087c57805160ff19168380011785556108aa565b828001600101855582156108aa579182015b828111156108a957825182559160200191906001019061088e565b5b5090506108b791906108bb565b5090565b6108dd91905b808211156108d95760008160009055506001016108c1565b5090565b9056fea165627a7a723058206087f0f55d21e810b9cea1cd5de7373689eaa037d7eebef4c7f2fd331e723f780029",
  "source": "pragma solidity ^0.5.0;\n\ncontract Survey {\n \n uint public totalSurveysCollected;\n uint public pointsPerSurvey;\n \n struct User {\n     string name;\n     uint balance;\n     bool active;\n }\n \n mapping (address => User) public users;\n \n constructor() public {\n     totalSurveysCollected = 0;\n     pointsPerSurvey = 10;\n }\n \n event allowEntry(address user);\n event userRegistered(string name);\n event redeemedPoints(address user);\n \n modifier newUser(address user) { require(users[user].active == false); _; }\n modifier registeredUser(address user) {  require(users[user].active == true); _; }\n modifier hasPoints(address user, uint points) {    require(users[user].balance >= points); _;}\n \n function registerUser(string memory name) public newUser(msg.sender){\n     users[msg.sender].name = name;\n     users[msg.sender].balance = 0;\n     users[msg.sender].active = true;\n     emit userRegistered(name);\n }\n \n function addSurveyEntry() public registeredUser(msg.sender){\n     users[msg.sender].balance += pointsPerSurvey;\n     totalSurveysCollected += 1;\n     emit allowEntry(msg.sender);\n }\n \n function redeemPoints(uint points) public registeredUser(msg.sender) hasPoints(msg.sender, points){\n     users[msg.sender].balance -= points;\n     emit redeemedPoints(msg.sender);\n     \n }\n \n}",
  "sourcePath": "/Users/vikramkarthikeyan/Documents/701/701-blockchain/survey-contract/contracts/Survey.sol",
  "compiler": {
    "name": "solc",
    "version": "0.5.0+commit.1d4f565a.Emscripten.clang"
  },
  "schemaVersion": "3.0.1",
  "updatedAt": "2019-04-02T20:10:28.281Z",
  "devdoc": {
    "methods": {}
  },
  "userdoc": {
    "methods": {}
  }
}