{
  "contractName": "Survey",
  "abi": [
    {
      "constant": true,
      "inputs": [],
      "name": "totalSurveysCollected",
      "outputs": [
        {
          "name": "",
          "type": "uint256"
        }
      ],
      "payable": false,
      "stateMutability": "view",
      "type": "function",
      "signature": "0x1818bb4f"
    },
    {
      "constant": true,
      "inputs": [
        {
          "name": "",
          "type": "uint256"
        }
      ],
      "name": "users",
      "outputs": [
        {
          "name": "balance",
          "type": "uint256"
        },
        {
          "name": "active",
          "type": "bool"
        }
      ],
      "payable": false,
      "stateMutability": "view",
      "type": "function",
      "signature": "0x365b98b2"
    },
    {
      "constant": true,
      "inputs": [],
      "name": "pointsPerSurvey",
      "outputs": [
        {
          "name": "",
          "type": "uint256"
        }
      ],
      "payable": false,
      "stateMutability": "view",
      "type": "function",
      "signature": "0x8017883d"
    },
    {
      "inputs": [],
      "payable": false,
      "stateMutability": "nonpayable",
      "type": "constructor",
      "signature": "constructor"
    },
    {
      "anonymous": false,
      "inputs": [
        {
          "indexed": false,
          "name": "user",
          "type": "uint256"
        }
      ],
      "name": "allowEntry",
      "type": "event",
      "signature": "0x4f42592042843ab3ecb68469cf6ba9a4cf6fe8d2df5dd3d080eb8993cb4d655d"
    },
    {
      "anonymous": false,
      "inputs": [
        {
          "indexed": false,
          "name": "name",
          "type": "uint256"
        }
      ],
      "name": "userRegistered",
      "type": "event",
      "signature": "0x6b7a42e3768fc24ff05fc49e251816434f842a132416160282a290142dbdefd2"
    },
    {
      "anonymous": false,
      "inputs": [
        {
          "indexed": false,
          "name": "user",
          "type": "uint256"
        }
      ],
      "name": "redeemedPoints",
      "type": "event",
      "signature": "0xa246c37b0a9df7d1776fb25c009cdb31560b9aa4d14a010f2b0ea345318ff755"
    },
    {
      "constant": false,
      "inputs": [
        {
          "name": "user",
          "type": "uint256"
        }
      ],
      "name": "registerUser",
      "outputs": [],
      "payable": false,
      "stateMutability": "nonpayable",
      "type": "function",
      "signature": "0x1bbfae0e"
    },
    {
      "constant": true,
      "inputs": [],
      "name": "getSurveyCount",
      "outputs": [
        {
          "name": "",
          "type": "uint256"
        }
      ],
      "payable": false,
      "stateMutability": "view",
      "type": "function",
      "signature": "0x9fe140b1"
    },
    {
      "constant": false,
      "inputs": [
        {
          "name": "user",
          "type": "uint256"
        }
      ],
      "name": "addSurveyEntry",
      "outputs": [],
      "payable": false,
      "stateMutability": "nonpayable",
      "type": "function",
      "signature": "0x78dbd544"
    },
    {
      "constant": false,
      "inputs": [
        {
          "name": "user",
          "type": "uint256"
        },
        {
          "name": "points",
          "type": "uint256"
        }
      ],
      "name": "redeemPoints",
      "outputs": [],
      "payable": false,
      "stateMutability": "nonpayable",
      "type": "function",
      "signature": "0xc2e70431"
    }
  ],
  "bytecode": "0x608060405234801561001057600080fd5b5060008081905550600a6001819055506104b58061002f6000396000f3fe608060405260043610610083576000357c0100000000000000000000000000000000000000000000000000000000900463ffffffff1680631818bb4f146100885780631bbfae0e146100b3578063365b98b2146100ee57806378dbd544146101485780638017883d146101835780639fe140b1146101ae578063c2e70431146101d9575b600080fd5b34801561009457600080fd5b5061009d61021e565b6040518082815260200191505060405180910390f35b3480156100bf57600080fd5b506100ec600480360360208110156100d657600080fd5b8101908080359060200190929190505050610224565b005b3480156100fa57600080fd5b506101276004803603602081101561011157600080fd5b81019080803590602001909291905050506102e1565b60405180838152602001821515151581526020019250505060405180910390f35b34801561015457600080fd5b506101816004803603602081101561016b57600080fd5b8101908080359060200190929190505050610312565b005b34801561018f57600080fd5b506101986103ba565b6040518082815260200191505060405180910390f35b3480156101ba57600080fd5b506101c36103c0565b6040518082815260200191505060405180910390f35b3480156101e557600080fd5b5061021c600480360360408110156101fc57600080fd5b8101908080359060200190929190803590602001909291905050506103c9565b005b60005481565b80600015156002600083815260200190815260200160002060010160009054906101000a900460ff16151514151561025b57600080fd5b6000600260008481526020019081526020016000206000018190555060016002600084815260200190815260200160002060010160006101000a81548160ff0219169083151502179055507f6b7a42e3768fc24ff05fc49e251816434f842a132416160282a290142dbdefd2826040518082815260200191505060405180910390a15050565b60026020528060005260406000206000915090508060000154908060010160009054906101000a900460ff16905082565b80600115156002600083815260200190815260200160002060010160009054906101000a900460ff16151514151561034957600080fd5b6001546002600084815260200190815260200160002060000160008282540192505081905550600160008082825401925050819055507f4f42592042843ab3ecb68469cf6ba9a4cf6fe8d2df5dd3d080eb8993cb4d655d826040518082815260200191505060405180910390a15050565b60015481565b60008054905090565b81600115156002600083815260200190815260200160002060010160009054906101000a900460ff16151514151561040057600080fd5b82828060026000848152602001908152602001600020600001541015151561042757600080fd5b8360026000878152602001908152602001600020600001600082825403925050819055507fa246c37b0a9df7d1776fb25c009cdb31560b9aa4d14a010f2b0ea345318ff755856040518082815260200191505060405180910390a1505050505056fea165627a7a723058204f258d89de8359104a3b6620be8c401f5384c1a745f929a218a75f830ffe68180029",
  "source": "pragma solidity ^0.5.0;\n\ncontract Survey {\n \n uint public totalSurveysCollected;\n uint public pointsPerSurvey;\n \n struct User {\n     uint balance;\n     bool active;\n }\n \n mapping (uint => User) public users;\n \n constructor() public {\n     totalSurveysCollected = 0;\n     pointsPerSurvey = 10;\n }\n \n event allowEntry(uint user);\n event userRegistered(uint name);\n event redeemedPoints(uint user);\n \n modifier newUser(uint user) { require(users[user].active == false); _; }\n modifier registeredUser(uint user) {  require(users[user].active == true); _; }\n modifier hasPoints(uint user, uint points) {    require(users[user].balance >= points); _;}\n \n function registerUser(uint user) public newUser(user){\n     users[user].balance = 0;\n     users[user].active = true;\n     emit userRegistered(user);\n }\n\n function getSurveyCount() view public returns(uint){\n     return totalSurveysCollected;\n }\n \n function addSurveyEntry(uint user) public registeredUser(user){\n     users[user].balance += pointsPerSurvey;\n     totalSurveysCollected += 1;\n     emit allowEntry(user);\n }\n \n function redeemPoints(uint user, uint points) public registeredUser(user) hasPoints(user, points){\n     users[user].balance -= points;\n     emit redeemedPoints(user);\n     \n }\n \n}\n",
  "sourcePath": "/Users/vikramkarthikeyan/Documents/701/701-blockchain/survey-contract/contracts/Survey.sol",
  "compiler": {
    "name": "solc",
    "version": "0.5.0+commit.1d4f565a.Emscripten.clang"
  },
  "schemaVersion": "3.0.1",
  "updatedAt": "2019-04-03T20:50:45.605Z",
  "devdoc": {
    "methods": {}
  },
  "userdoc": {
    "methods": {}
  }
}