{
  "contractName": "Survey",
  "abi": [
    {
      "constant": true,
      "inputs": [],
      "name": "totalSurveysCollected",
      "outputs": [
        {
          "name": "",
          "type": "uint256"
        }
      ],
      "payable": false,
      "stateMutability": "view",
      "type": "function",
      "signature": "0x1818bb4f"
    },
    {
      "constant": true,
      "inputs": [
        {
          "name": "",
          "type": "uint256"
        }
      ],
      "name": "users",
      "outputs": [
        {
          "name": "balance",
          "type": "uint256"
        },
        {
          "name": "active",
          "type": "bool"
        },
        {
          "name": "banned",
          "type": "bool"
        }
      ],
      "payable": false,
      "stateMutability": "view",
      "type": "function",
      "signature": "0x365b98b2"
    },
    {
      "constant": true,
      "inputs": [],
      "name": "pointsPerSurvey",
      "outputs": [
        {
          "name": "",
          "type": "uint256"
        }
      ],
      "payable": false,
      "stateMutability": "view",
      "type": "function",
      "signature": "0x8017883d"
    },
    {
      "inputs": [],
      "payable": false,
      "stateMutability": "nonpayable",
      "type": "constructor",
      "signature": "constructor"
    },
    {
      "anonymous": false,
      "inputs": [
        {
          "indexed": false,
          "name": "user",
          "type": "uint256"
        }
      ],
      "name": "allowEntry",
      "type": "event",
      "signature": "0x4f42592042843ab3ecb68469cf6ba9a4cf6fe8d2df5dd3d080eb8993cb4d655d"
    },
    {
      "anonymous": false,
      "inputs": [
        {
          "indexed": false,
          "name": "name",
          "type": "uint256"
        }
      ],
      "name": "userRegistered",
      "type": "event",
      "signature": "0x6b7a42e3768fc24ff05fc49e251816434f842a132416160282a290142dbdefd2"
    },
    {
      "anonymous": false,
      "inputs": [
        {
          "indexed": false,
          "name": "user",
          "type": "uint256"
        }
      ],
      "name": "redeemedPoints",
      "type": "event",
      "signature": "0xa246c37b0a9df7d1776fb25c009cdb31560b9aa4d14a010f2b0ea345318ff755"
    },
    {
      "constant": false,
      "inputs": [
        {
          "name": "user",
          "type": "uint256"
        }
      ],
      "name": "registerUser",
      "outputs": [],
      "payable": false,
      "stateMutability": "nonpayable",
      "type": "function",
      "signature": "0x1bbfae0e"
    },
    {
      "constant": true,
      "inputs": [],
      "name": "getSurveyCount",
      "outputs": [
        {
          "name": "",
          "type": "uint256"
        }
      ],
      "payable": false,
      "stateMutability": "view",
      "type": "function",
      "signature": "0x9fe140b1"
    },
    {
      "constant": true,
      "inputs": [
        {
          "name": "user",
          "type": "uint256"
        }
      ],
      "name": "getPoints",
      "outputs": [
        {
          "name": "",
          "type": "uint256"
        }
      ],
      "payable": false,
      "stateMutability": "view",
      "type": "function",
      "signature": "0xa967eee4"
    },
    {
      "constant": false,
      "inputs": [
        {
          "name": "user",
          "type": "uint256"
        }
      ],
      "name": "banUser",
      "outputs": [],
      "payable": false,
      "stateMutability": "nonpayable",
      "type": "function",
      "signature": "0x746593a5"
    },
    {
      "constant": false,
      "inputs": [
        {
          "name": "user",
          "type": "uint256"
        }
      ],
      "name": "addSurveyEntry",
      "outputs": [],
      "payable": false,
      "stateMutability": "nonpayable",
      "type": "function",
      "signature": "0x78dbd544"
    },
    {
      "constant": false,
      "inputs": [
        {
          "name": "user",
          "type": "uint256"
        },
        {
          "name": "points",
          "type": "uint256"
        }
      ],
      "name": "redeemPoints",
      "outputs": [],
      "payable": false,
      "stateMutability": "nonpayable",
      "type": "function",
      "signature": "0xc2e70431"
    }
  ],
  "bytecode": "0x608060405234801561001057600080fd5b5060008081905550600a6001819055506106968061002f6000396000f3fe608060405260043610610093576000357c0100000000000000000000000000000000000000000000000000000000900480631818bb4f146100985780631bbfae0e146100c3578063365b98b2146100fe578063746593a51461016357806378dbd5441461019e5780638017883d146101d95780639fe140b114610204578063a967eee41461022f578063c2e704311461027e575b600080fd5b3480156100a457600080fd5b506100ad6102c3565b6040518082815260200191505060405180910390f35b3480156100cf57600080fd5b506100fc600480360360208110156100e657600080fd5b81019080803590602001909291905050506102c9565b005b34801561010a57600080fd5b506101376004803603602081101561012157600080fd5b81019080803590602001909291905050506103b5565b604051808481526020018315151515815260200182151515158152602001935050505060405180910390f35b34801561016f57600080fd5b5061019c6004803603602081101561018657600080fd5b81019080803590602001909291905050506103f9565b005b3480156101aa57600080fd5b506101d7600480360360208110156101c157600080fd5b8101908080359060200190929190505050610463565b005b3480156101e557600080fd5b506101ee610543565b6040518082815260200191505060405180910390f35b34801561021057600080fd5b50610219610549565b6040518082815260200191505060405180910390f35b34801561023b57600080fd5b506102686004803603602081101561025257600080fd5b8101908080359060200190929190505050610552565b6040518082815260200191505060405180910390f35b34801561028a57600080fd5b506102c1600480360360408110156102a157600080fd5b8101908080359060200190929190803590602001909291905050506105aa565b005b60005481565b80600015156002600083815260200190815260200160002060010160009054906101000a900460ff16151514151561030057600080fd5b6000600260008481526020019081526020016000206000018190555060016002600084815260200190815260200160002060010160006101000a81548160ff02191690831515021790555060006002600084815260200190815260200160002060010160016101000a81548160ff0219169083151502179055507f6b7a42e3768fc24ff05fc49e251816434f842a132416160282a290142dbdefd2826040518082815260200191505060405180910390a15050565b60026020528060005260406000206000915090508060000154908060010160009054906101000a900460ff16908060010160019054906101000a900460ff16905083565b80600115156002600083815260200190815260200160002060010160009054906101000a900460ff16151514151561043057600080fd5b60016002600084815260200190815260200160002060010160016101000a81548160ff0219169083151502179055505050565b80600115156002600083815260200190815260200160002060010160009054906101000a900460ff16151514151561049a57600080fd5b81600015156002600083815260200190815260200160002060010160019054906101000a900460ff1615151415156104d157600080fd5b6001546002600085815260200190815260200160002060000160008282540192505081905550600160008082825401925050819055507f4f42592042843ab3ecb68469cf6ba9a4cf6fe8d2df5dd3d080eb8993cb4d655d836040518082815260200191505060405180910390a1505050565b60015481565b60008054905090565b600081600115156002600083815260200190815260200160002060010160009054906101000a900460ff16151514151561058b57600080fd5b6002600084815260200190815260200160002060000154915050919050565b81600115156002600083815260200190815260200160002060010160009054906101000a900460ff1615151415156105e157600080fd5b82828060026000848152602001908152602001600020600001541015151561060857600080fd5b8360026000878152602001908152602001600020600001600082825403925050819055507fa246c37b0a9df7d1776fb25c009cdb31560b9aa4d14a010f2b0ea345318ff755856040518082815260200191505060405180910390a1505050505056fea165627a7a72305820cce74017ac786a3c930574559a83979a589946fdbfa8807a8f5b079d47440d040029",
  "source": "pragma solidity ^0.5.0;\n\ncontract Survey {\n \n uint public totalSurveysCollected;\n uint public pointsPerSurvey;\n \n struct User {\n     uint balance;\n     bool active;\n     bool banned;\n }\n \n mapping (uint => User) public users;\n \n constructor() public {\n     totalSurveysCollected = 0;\n     pointsPerSurvey = 10;\n }\n \n event allowEntry(uint user);\n event userRegistered(uint name);\n event redeemedPoints(uint user);\n \n modifier newUser(uint user) { require(users[user].active == false); _; }\n modifier registeredUser(uint user) {  require(users[user].active == true); _; }\n modifier hasPoints(uint user, uint points) {    require(users[user].balance >= points); _;}\n modifier notBanned(uint user) { require(users[user].banned == false); _;}\n \n function registerUser(uint user) public newUser(user){\n     users[user].balance = 0;\n     users[user].active = true;\n     users[user].banned = false;\n     emit userRegistered(user);\n }\n\n function getSurveyCount() view public returns(uint){\n     return totalSurveysCollected;\n }\n  \n function getPoints(uint user) view public registeredUser(user) returns(uint){\n     return users[user].balance;\n }\n\n function banUser(uint user) public registeredUser(user){\n     users[user].banned = true;\n }\n \n function addSurveyEntry(uint user) public registeredUser(user) notBanned(user){\n     users[user].balance += pointsPerSurvey;\n     totalSurveysCollected += 1;\n     emit allowEntry(user);\n }\n\n function redeemPoints(uint user, uint points) public registeredUser(user) hasPoints(user, points){\n     users[user].balance -= points;\n     emit redeemedPoints(user);\n }\n \n}",
  "sourcePath": "/Users/vikramkarthikeyan/Documents/701/701-blockchain/survey-contract/contracts/Survey.sol",
  "compiler": {
    "name": "solc",
    "version": "0.5.1+commit.c8a2cb62.Emscripten.clang"
  },
  "schemaVersion": "3.0.1",
  "updatedAt": "2019-04-28T03:10:53.057Z",
  "devdoc": {
    "methods": {}
  },
  "userdoc": {
    "methods": {}
  }
}