{
  "contractName": "Survey",
  "abi": [
    {
      "constant": true,
      "inputs": [],
      "name": "totalSurveysCollected",
      "outputs": [
        {
          "name": "",
          "type": "uint256"
        }
      ],
      "payable": false,
      "stateMutability": "view",
      "type": "function",
      "signature": "0x1818bb4f"
    },
    {
      "constant": true,
      "inputs": [
        {
          "name": "",
          "type": "uint256"
        }
      ],
      "name": "users",
      "outputs": [
        {
          "name": "balance",
          "type": "uint256"
        },
        {
          "name": "active",
          "type": "bool"
        },
        {
          "name": "banned",
          "type": "bool"
        },
        {
          "name": "secret",
          "type": "string"
        }
      ],
      "payable": false,
      "stateMutability": "view",
      "type": "function",
      "signature": "0x365b98b2"
    },
    {
      "constant": true,
      "inputs": [],
      "name": "pointsPerSurvey",
      "outputs": [
        {
          "name": "",
          "type": "uint256"
        }
      ],
      "payable": false,
      "stateMutability": "view",
      "type": "function",
      "signature": "0x8017883d"
    },
    {
      "inputs": [],
      "payable": false,
      "stateMutability": "nonpayable",
      "type": "constructor",
      "signature": "constructor"
    },
    {
      "anonymous": false,
      "inputs": [
        {
          "indexed": false,
          "name": "user",
          "type": "uint256"
        }
      ],
      "name": "allowEntry",
      "type": "event",
      "signature": "0x4f42592042843ab3ecb68469cf6ba9a4cf6fe8d2df5dd3d080eb8993cb4d655d"
    },
    {
      "anonymous": false,
      "inputs": [
        {
          "indexed": false,
          "name": "name",
          "type": "uint256"
        }
      ],
      "name": "userRegistered",
      "type": "event",
      "signature": "0x6b7a42e3768fc24ff05fc49e251816434f842a132416160282a290142dbdefd2"
    },
    {
      "anonymous": false,
      "inputs": [
        {
          "indexed": false,
          "name": "user",
          "type": "uint256"
        }
      ],
      "name": "redeemedPoints",
      "type": "event",
      "signature": "0xa246c37b0a9df7d1776fb25c009cdb31560b9aa4d14a010f2b0ea345318ff755"
    },
    {
      "constant": false,
      "inputs": [
        {
          "name": "user",
          "type": "uint256"
        }
      ],
      "name": "registerUser",
      "outputs": [],
      "payable": false,
      "stateMutability": "nonpayable",
      "type": "function",
      "signature": "0x1bbfae0e"
    },
    {
      "constant": true,
      "inputs": [],
      "name": "getSurveyCount",
      "outputs": [
        {
          "name": "",
          "type": "uint256"
        }
      ],
      "payable": false,
      "stateMutability": "view",
      "type": "function",
      "signature": "0x9fe140b1"
    },
    {
      "constant": true,
      "inputs": [
        {
          "name": "user",
          "type": "uint256"
        }
      ],
      "name": "getPoints",
      "outputs": [
        {
          "name": "",
          "type": "uint256"
        }
      ],
      "payable": false,
      "stateMutability": "view",
      "type": "function",
      "signature": "0xa967eee4"
    },
    {
      "constant": true,
      "inputs": [
        {
          "name": "user",
          "type": "uint256"
        }
      ],
      "name": "getUserHash",
      "outputs": [
        {
          "name": "",
          "type": "string"
        }
      ],
      "payable": false,
      "stateMutability": "view",
      "type": "function",
      "signature": "0x4e838e6a"
    },
    {
      "constant": false,
      "inputs": [
        {
          "name": "user",
          "type": "uint256"
        },
        {
          "name": "secret",
          "type": "string"
        }
      ],
      "name": "updateUserHash",
      "outputs": [],
      "payable": false,
      "stateMutability": "nonpayable",
      "type": "function",
      "signature": "0xdf39e108"
    },
    {
      "constant": false,
      "inputs": [
        {
          "name": "user",
          "type": "uint256"
        }
      ],
      "name": "banUser",
      "outputs": [],
      "payable": false,
      "stateMutability": "nonpayable",
      "type": "function",
      "signature": "0x746593a5"
    },
    {
      "constant": false,
      "inputs": [
        {
          "name": "user",
          "type": "uint256"
        }
      ],
      "name": "addSurveyEntry",
      "outputs": [],
      "payable": false,
      "stateMutability": "nonpayable",
      "type": "function",
      "signature": "0x78dbd544"
    },
    {
      "constant": false,
      "inputs": [
        {
          "name": "user",
          "type": "uint256"
        },
        {
          "name": "points",
          "type": "uint256"
        }
      ],
      "name": "redeemPoints",
      "outputs": [],
      "payable": false,
      "stateMutability": "nonpayable",
      "type": "function",
      "signature": "0xc2e70431"
    }
  ],
  "bytecode": "0x608060405234801561001057600080fd5b5060008081905550600a600181905550610be08061002f6000396000f3fe6080604052600436106100a9576000357c0100000000000000000000000000000000000000000000000000000000900480631818bb4f146100ae5780631bbfae0e146100d9578063365b98b2146101145780634e838e6a146101e5578063746593a51461029957806378dbd544146102d45780638017883d1461030f5780639fe140b11461033a578063a967eee414610365578063c2e70431146103b4578063df39e108146103f9575b600080fd5b3480156100ba57600080fd5b506100c36104cb565b6040518082815260200191505060405180910390f35b3480156100e557600080fd5b50610112600480360360208110156100fc57600080fd5b81019080803590602001909291905050506104d1565b005b34801561012057600080fd5b5061014d6004803603602081101561013757600080fd5b81019080803590602001909291905050506105bd565b60405180858152602001841515151581526020018315151515815260200180602001828103825283818151815260200191508051906020019080838360005b838110156101a757808201518184015260208101905061018c565b50505050905090810190601f1680156101d45780820380516001836020036101000a031916815260200191505b509550505050505060405180910390f35b3480156101f157600080fd5b5061021e6004803603602081101561020857600080fd5b810190808035906020019092919050505061069f565b6040518080602001828103825283818151815260200191508051906020019080838360005b8381101561025e578082015181840152602081019050610243565b50505050905090810190601f16801561028b5780820380516001836020036101000a031916815260200191505b509250505060405180910390f35b3480156102a557600080fd5b506102d2600480360360208110156102bc57600080fd5b81019080803590602001909291905050506107c7565b005b3480156102e057600080fd5b5061030d600480360360208110156102f757600080fd5b8101908080359060200190929190505050610831565b005b34801561031b57600080fd5b50610324610911565b6040518082815260200191505060405180910390f35b34801561034657600080fd5b5061034f610917565b6040518082815260200191505060405180910390f35b34801561037157600080fd5b5061039e6004803603602081101561038857600080fd5b8101908080359060200190929190505050610920565b6040518082815260200191505060405180910390f35b3480156103c057600080fd5b506103f7600480360360408110156103d757600080fd5b8101908080359060200190929190803590602001909291905050506109b0565b005b34801561040557600080fd5b506104c96004803603604081101561041c57600080fd5b81019080803590602001909291908035906020019064010000000081111561044357600080fd5b82018360208201111561045557600080fd5b8035906020019184600183028401116401000000008311171561047757600080fd5b91908080601f016020809104026020016040519081016040528093929190818152602001838380828437600081840152601f19601f820116905080830192505050505050509192919290505050610a70565b005b60005481565b80600015156002600083815260200190815260200160002060010160009054906101000a900460ff16151514151561050857600080fd5b6000600260008481526020019081526020016000206000018190555060016002600084815260200190815260200160002060010160006101000a81548160ff02191690831515021790555060006002600084815260200190815260200160002060010160016101000a81548160ff0219169083151502179055507f6b7a42e3768fc24ff05fc49e251816434f842a132416160282a290142dbdefd2826040518082815260200191505060405180910390a15050565b60026020528060005260406000206000915090508060000154908060010160009054906101000a900460ff16908060010160019054906101000a900460ff1690806002018054600181600116156101000203166002900480601f0160208091040260200160405190810160405280929190818152602001828054600181600116156101000203166002900480156106955780601f1061066a57610100808354040283529160200191610695565b820191906000526020600020905b81548152906001019060200180831161067857829003601f168201915b5050505050905084565b606081600115156002600083815260200190815260200160002060010160009054906101000a900460ff1615151415156106d857600080fd5b82600015156002600083815260200190815260200160002060010160019054906101000a900460ff16151514151561070f57600080fd5b600260008581526020019081526020016000206002018054600181600116156101000203166002900480601f0160208091040260200160405190810160405280929190818152602001828054600181600116156101000203166002900480156107b95780601f1061078e576101008083540402835291602001916107b9565b820191906000526020600020905b81548152906001019060200180831161079c57829003601f168201915b505050505092505050919050565b80600115156002600083815260200190815260200160002060010160009054906101000a900460ff1615151415156107fe57600080fd5b60016002600084815260200190815260200160002060010160016101000a81548160ff0219169083151502179055505050565b80600115156002600083815260200190815260200160002060010160009054906101000a900460ff16151514151561086857600080fd5b81600015156002600083815260200190815260200160002060010160019054906101000a900460ff16151514151561089f57600080fd5b6001546002600085815260200190815260200160002060000160008282540192505081905550600160008082825401925050819055507f4f42592042843ab3ecb68469cf6ba9a4cf6fe8d2df5dd3d080eb8993cb4d655d836040518082815260200191505060405180910390a1505050565b60015481565b60008054905090565b600081600115156002600083815260200190815260200160002060010160009054906101000a900460ff16151514151561095957600080fd5b82600015156002600083815260200190815260200160002060010160019054906101000a900460ff16151514151561099057600080fd5b600260008581526020019081526020016000206000015492505050919050565b81600115156002600083815260200190815260200160002060010160009054906101000a900460ff1615151415156109e757600080fd5b828280600260008481526020019081526020016000206000015410151515610a0e57600080fd5b8360026000878152602001908152602001600020600001600082825403925050819055507fa246c37b0a9df7d1776fb25c009cdb31560b9aa4d14a010f2b0ea345318ff755856040518082815260200191505060405180910390a15050505050565b81600115156002600083815260200190815260200160002060010160009054906101000a900460ff161515141515610aa757600080fd5b82600015156002600083815260200190815260200160002060010160019054906101000a900460ff161515141515610ade57600080fd5b82600260008681526020019081526020016000206002019080519060200190610b08929190610b0f565b5050505050565b828054600181600116156101000203166002900490600052602060002090601f016020900481019282601f10610b5057805160ff1916838001178555610b7e565b82800160010185558215610b7e579182015b82811115610b7d578251825591602001919060010190610b62565b5b509050610b8b9190610b8f565b5090565b610bb191905b80821115610bad576000816000905550600101610b95565b5090565b9056fea165627a7a72305820cf933435297b5efcfb7606217cd4961103e1f74c60a76429db618f61e7d518250029",
  "source": "pragma solidity ^0.5.0;\n\ncontract Survey {\n \n uint public totalSurveysCollected;\n uint public pointsPerSurvey;\n \n struct User {\n     uint balance;\n     bool active;\n     bool banned;\n     string secret;\n }\n \n mapping (uint => User) public users;\n \n constructor() public {\n     totalSurveysCollected = 0;\n     pointsPerSurvey = 10;\n }\n \n event allowEntry(uint user);\n event userRegistered(uint name);\n event redeemedPoints(uint user);\n \n modifier newUser(uint user) { require(users[user].active == false); _; }\n modifier registeredUser(uint user) {  require(users[user].active == true); _; }\n modifier hasPoints(uint user, uint points) {    require(users[user].balance >= points); _;}\n modifier notBanned(uint user) { require(users[user].banned == false); _;}\n \n function registerUser(uint user) public newUser(user){\n     users[user].balance = 0;\n     users[user].active = true;\n     users[user].banned = false;\n     emit userRegistered(user);\n }\n\n function getSurveyCount() view public returns(uint){\n     return totalSurveysCollected;\n }\n  \n function getPoints(uint user) view public registeredUser(user) notBanned(user) returns(uint){\n     return users[user].balance;\n }\n \n function getUserHash(uint user) view public registeredUser(user) notBanned(user) returns(string memory){\n     return users[user].secret;\n }\n \n function updateUserHash(uint user, string memory secret) public registeredUser(user) notBanned(user){\n     users[user].secret = secret;\n }\n\n function banUser(uint user) public registeredUser(user){\n     users[user].banned = true;\n }\n \n function addSurveyEntry(uint user) public registeredUser(user) notBanned(user){\n     users[user].balance += pointsPerSurvey;\n     totalSurveysCollected += 1;\n     emit allowEntry(user);\n }\n\n function redeemPoints(uint user, uint points) public registeredUser(user) hasPoints(user, points){\n     users[user].balance -= points;\n     emit redeemedPoints(user);\n }\n \n}",
  "sourcePath": "/Users/vikramkarthikeyan/Documents/701/701-blockchain/survey-contract/contracts/Survey.sol",
  "compiler": {
    "name": "solc",
    "version": "0.5.1+commit.c8a2cb62.Emscripten.clang"
  },
  "schemaVersion": "3.0.1",
  "updatedAt": "2019-04-30T22:25:45.724Z",
  "devdoc": {
    "methods": {}
  },
  "userdoc": {
    "methods": {}
  }
}