{
  "contractName": "Survey",
  "abi": [
    {
      "constant": true,
      "inputs": [],
      "name": "totalSurveysCollected",
      "outputs": [
        {
          "name": "",
          "type": "uint256"
        }
      ],
      "payable": false,
      "stateMutability": "view",
      "type": "function"
    },
    {
      "constant": true,
      "inputs": [],
      "name": "pointsPerSurvey",
      "outputs": [
        {
          "name": "",
          "type": "uint256"
        }
      ],
      "payable": false,
      "stateMutability": "view",
      "type": "function"
    },
    {
      "constant": true,
      "inputs": [
        {
          "name": "",
          "type": "address"
        }
      ],
      "name": "users",
      "outputs": [
        {
          "name": "name",
          "type": "string"
        },
        {
          "name": "balance",
          "type": "uint256"
        },
        {
          "name": "active",
          "type": "bool"
        }
      ],
      "payable": false,
      "stateMutability": "view",
      "type": "function"
    },
    {
      "inputs": [],
      "payable": false,
      "stateMutability": "nonpayable",
      "type": "constructor"
    },
    {
      "anonymous": false,
      "inputs": [
        {
          "indexed": false,
          "name": "user",
          "type": "address"
        }
      ],
      "name": "allowEntry",
      "type": "event"
    },
    {
      "anonymous": false,
      "inputs": [
        {
          "indexed": false,
          "name": "name",
          "type": "string"
        }
      ],
      "name": "userRegistered",
      "type": "event"
    },
    {
      "anonymous": false,
      "inputs": [
        {
          "indexed": false,
          "name": "user",
          "type": "address"
        }
      ],
      "name": "redeemedPoints",
      "type": "event"
    },
    {
      "constant": false,
      "inputs": [
        {
          "name": "name",
          "type": "string"
        }
      ],
      "name": "registerUser",
      "outputs": [],
      "payable": false,
      "stateMutability": "nonpayable",
      "type": "function"
    },
    {
      "constant": true,
      "inputs": [],
      "name": "getSurveyCount",
      "outputs": [
        {
          "name": "",
          "type": "uint256"
        }
      ],
      "payable": false,
      "stateMutability": "view",
      "type": "function"
    },
    {
      "constant": false,
      "inputs": [],
      "name": "addSurveyEntry",
      "outputs": [],
      "payable": false,
      "stateMutability": "nonpayable",
      "type": "function"
    },
    {
      "constant": false,
      "inputs": [
        {
          "name": "points",
          "type": "uint256"
        }
      ],
      "name": "redeemPoints",
      "outputs": [],
      "payable": false,
      "stateMutability": "nonpayable",
      "type": "function"
    }
  ],
  "bytecode": "0x608060405234801561001057600080fd5b5060008081905550600a60018190555061094b8061002f6000396000f3fe608060405260043610610083576000357c0100000000000000000000000000000000000000000000000000000000900463ffffffff1680631818bb4f14610088578063704f1b94146100b357806372628dcd1461017b5780638017883d146101925780639fe140b1146101bd578063a87430ba146101e8578063e92e92e7146102c4575b600080fd5b34801561009457600080fd5b5061009d6102ff565b6040518082815260200191505060405180910390f35b3480156100bf57600080fd5b50610179600480360360208110156100d657600080fd5b81019080803590602001906401000000008111156100f357600080fd5b82018360208201111561010557600080fd5b8035906020019184600183028401116401000000008311171561012757600080fd5b91908080601f016020809104026020016040519081016040528093929190818152602001838380828437600081840152601f19601f820116905080830192505050505050509192919290505050610305565b005b34801561018757600080fd5b50610190610502565b005b34801561019e57600080fd5b506101a761062d565b6040518082815260200191505060405180910390f35b3480156101c957600080fd5b506101d2610633565b6040518082815260200191505060405180910390f35b3480156101f457600080fd5b506102376004803603602081101561020b57600080fd5b81019080803573ffffffffffffffffffffffffffffffffffffffff16906020019092919050505061063c565b604051808060200184815260200183151515158152602001828103825285818151815260200191508051906020019080838360005b8381101561028757808201518184015260208101905061026c565b50505050905090810190601f1680156102b45780820380516001836020036101000a031916815260200191505b5094505050505060405180910390f35b3480156102d057600080fd5b506102fd600480360360208110156102e757600080fd5b810190808035906020019092919050505061070b565b005b60005481565b3360001515600260008373ffffffffffffffffffffffffffffffffffffffff1673ffffffffffffffffffffffffffffffffffffffff16815260200190815260200160002060020160009054906101000a900460ff16151514151561036857600080fd5b81600260003373ffffffffffffffffffffffffffffffffffffffff1673ffffffffffffffffffffffffffffffffffffffff16815260200190815260200160002060000190805190602001906103be92919061087a565b506000600260003373ffffffffffffffffffffffffffffffffffffffff1673ffffffffffffffffffffffffffffffffffffffff168152602001908152602001600020600101819055506001600260003373ffffffffffffffffffffffffffffffffffffffff1673ffffffffffffffffffffffffffffffffffffffff16815260200190815260200160002060020160006101000a81548160ff0219169083151502179055507f21c81c0097b6e1b7ef20206aea0850a329a7d615636155335fa8fd79add21045826040518080602001828103825283818151815260200191508051906020019080838360005b838110156104c45780820151818401526020810190506104a9565b50505050905090810190601f1680156104f15780820380516001836020036101000a031916815260200191505b509250505060405180910390a15050565b3360011515600260008373ffffffffffffffffffffffffffffffffffffffff1673ffffffffffffffffffffffffffffffffffffffff16815260200190815260200160002060020160009054906101000a900460ff16151514151561056557600080fd5b600154600260003373ffffffffffffffffffffffffffffffffffffffff1673ffffffffffffffffffffffffffffffffffffffff16815260200190815260200160002060010160008282540192505081905550600160008082825401925050819055507f132c7c4177ee7342e680a0f7c57373947326da998969a4ee7f1425c3ad75299f33604051808273ffffffffffffffffffffffffffffffffffffffff1673ffffffffffffffffffffffffffffffffffffffff16815260200191505060405180910390a150565b60015481565b60008054905090565b6002602052806000526040600020600091509050806000018054600181600116156101000203166002900480601f0160208091040260200160405190810160405280929190818152602001828054600181600116156101000203166002900480156106e85780601f106106bd576101008083540402835291602001916106e8565b820191906000526020600020905b8154815290600101906020018083116106cb57829003601f168201915b5050505050908060010154908060020160009054906101000a900460ff16905083565b3360011515600260008373ffffffffffffffffffffffffffffffffffffffff1673ffffffffffffffffffffffffffffffffffffffff16815260200190815260200160002060020160009054906101000a900460ff16151514151561076e57600080fd5b338280600260008473ffffffffffffffffffffffffffffffffffffffff1673ffffffffffffffffffffffffffffffffffffffff16815260200190815260200160002060010154101515156107c157600080fd5b83600260003373ffffffffffffffffffffffffffffffffffffffff1673ffffffffffffffffffffffffffffffffffffffff168152602001908152602001600020600101600082825403925050819055507fb50c83e287bc0816150c36543d983e2d551f698ebf3e895e674e99d8e0f25cb533604051808273ffffffffffffffffffffffffffffffffffffffff1673ffffffffffffffffffffffffffffffffffffffff16815260200191505060405180910390a150505050565b828054600181600116156101000203166002900490600052602060002090601f016020900481019282601f106108bb57805160ff19168380011785556108e9565b828001600101855582156108e9579182015b828111156108e85782518255916020019190600101906108cd565b5b5090506108f691906108fa565b5090565b61091c91905b80821115610918576000816000905550600101610900565b5090565b9056fea165627a7a72305820c78fb7da91284116b950dbac0ece2c14d22a982262e5cb5926faaed1e89574a30029",
  "source": "pragma solidity ^0.5.0;\n\ncontract Survey {\n \n uint public totalSurveysCollected;\n uint public pointsPerSurvey;\n \n struct User {\n     string name;\n     uint balance;\n     bool active;\n }\n \n mapping (address => User) public users;\n \n constructor() public {\n     totalSurveysCollected = 0;\n     pointsPerSurvey = 10;\n }\n \n event allowEntry(address user);\n event userRegistered(string name);\n event redeemedPoints(address user);\n \n modifier newUser(address user) { require(users[user].active == false); _; }\n modifier registeredUser(address user) {  require(users[user].active == true); _; }\n modifier hasPoints(address user, uint points) {    require(users[user].balance >= points); _;}\n \n function registerUser(string memory name) public newUser(msg.sender){\n     users[msg.sender].name = name;\n     users[msg.sender].balance = 0;\n     users[msg.sender].active = true;\n     emit userRegistered(name);\n }\n\n function getSurveyCount() view public returns(uint){\n     return totalSurveysCollected;\n }\n \n function addSurveyEntry() public registeredUser(msg.sender){\n     users[msg.sender].balance += pointsPerSurvey;\n     totalSurveysCollected += 1;\n     emit allowEntry(msg.sender);\n }\n \n function redeemPoints(uint points) public registeredUser(msg.sender) hasPoints(msg.sender, points){\n     users[msg.sender].balance -= points;\n     emit redeemedPoints(msg.sender);\n     \n }\n \n}",
  "sourcePath": "/Users/vikramkarthikeyan/Documents/701/701-blockchain/survey-contract/contracts/Survey.sol",
  "compiler": {
    "name": "solc",
    "version": "0.5.0+commit.1d4f565a.Emscripten.clang"
  },
  "schemaVersion": "3.0.1",
  "updatedAt": "2019-04-02T21:41:46.881Z",
  "devdoc": {
    "methods": {}
  },
  "userdoc": {
    "methods": {}
  }
}